:020000020000FC
:0C000000FFC00407205E1C4530330F00D9
:02001C0034C1ED
:1002000066270FEF0DBF08E00EBFA2E0B0E0CEE121
:10021000D0E0FD01F89407E00093B10002E0009304
:10022000B0000CE70093B30002E0009370007894F4
:1002300055277727EE2400276AD047C06AB9E72FF1
:100240000491E490FD010895089507E004B904E0E5
:1002500005B90FEF07B9062F08B90ED002E005B9AE
:10026000812F807F829588B907D001E005B9812F61
:100270008F7088B901D008952BE033E63A95F1F7F5
:100280002A95E1F7089559B15E1509F1D7DF43E0EA
:1002900098E011276627812F8F70853068F4812FB1
:1002A000807F803558F4653068F4000F111F661F99
:1002B0009A95903049F0EFCF140FF1CF1295140FAB
:1002C0001295F1CF640FF1CF1895BFDFFECF739574
:1002D000B5DF43E098E011276627812F8F708530C6
:1002E00068F4812F807F803558F4653068F4000F02
:1002F000111F661F9A95903049F0EFCF140FF1CF80
:100300001295140F1295F1CF640FF1CF1895239A1F
:10031000249A259A05E02D982C982B9807FD2B9A66
:100320002C9A2C982B9806FD2B9A2C9A2C982B986B
:1003300005FD2B9A2C9A2C982B9804FD2B9A2C9A1D
:100340002C982B9803FD2B9A2C9A2C982B9802FD15
:100350002B9A2C9A2C982B9801FD2B9A2C9A2C983E
:0C0360002B9800FD2B9A2C9A2D9A0895E2
:00000001FF
