:020000020000FC
:02000000FFC03F
:02001C0029C2F7
:02005400F8C0F2
:020040000DC1F0
:1002000066270FEF0DBF08E00EBFFD012DC007E010
:100210000093B10002E00093B0000CE70093B3003C
:1002200002E00093700008950FEF00E600937C0059
:100230000FEC00937A0004E000937B0000917A00B9
:100240000071E1F30895709179001895002704BDBD
:1002500002E005BD01E000936E00089530917A0040
:10026000306430937A00189577275527EE240027BD
:10027000FF24F89453D123D1CADFD6DF7894FCC091
:10028000272F8894331F08F4322708956AB9172F4F
:10029000122323E41695231F1695231F16951695F2
:1002A000169516951695231F20FB77F97695072F3F
:1002B000E72E089536D12A98299828982A9A4098A6
:1002C00060FD409A419861FD419A429862FD429AD0
:1002D000439863FD439AC5D02A9829982898299A6B
:1002E000812F807F8295409880FD409A419881FDC2
:1002F000419A429882FD429A439883FD439AB1D035
:100300002A9829982898289A812F8F70409880FDE4
:10031000409A419881FD419A429882FD429A4398C1
:1003200083FD439A9ED0089544984598449A2F2D72
:1003300043E098E011276627812F8F70853068F49D
:10034000812F807F803558F4653068F4220F111FAB
:10035000661F9A95903049F0EFCF140FF1CF1295A8
:10036000140F1295F1CF640FF1CF812F8F702D985C
:100370002C982B9887FD2B9A2C9A2C982B9886FDDD
:100380002B9A2C9A2C982B9885FD2B9A2C9A2C988A
:100390002B9884FD2B9A2C9A2C982B9883FD2B9AC2
:1003A0002C9A2C982B9882FD2B9A2C9A2C982B986F
:1003B00081FD2B9A2C9A2C982B9880FD2B9A2C9AA5
:1003C0002D9A4FD044984598459A812F807F8295E9
:1003D0002D982C982B9887FD2B9A2C9A2C982B983B
:1003E00086FD2B9A2C9A2C982B9885FD2B9A2C9A6B
:1003F0002C982B9884FD2B9A2C9A2C982B9883FD63
:100400002B9A2C9A2C982B9882FD2B9A2C9A2C980C
:100410002B9881FD2B9A2C9A2C982B9880FD2B9A47
:100420002C9A2D9A2E2D43E098E011276627812FD4
:100430008F70853068F4812F807F803558F4653067
:1004400068F4220F111F661F9A95903049F0EFCF84
:10045000140FF1CF1295140F1295F1CF640FF1CF55
:1004600008952BE033E63A95F1F72A95E1F70895E0
:1004700059B15E1521F018951DDF56DFFDCFF394BD
:1004800005DF43E098E011276627812F8F708530C4
:1004900068F4812F807F803558F4653068F4000F50
:1004A000111F661F9A95903049F0EFCF140FF1CFCE
:1004B0001295140F1295F1CF640FF1CF1895239A6E
:1004C000249A259A00E02D982C982B9807FD2B9ABA
:1004D0002C9A2C982B9806FD2B9A2C9A2C982B98BA
:1004E00005FD2B9A2C9A2C982B9804FD2B9A2C9A6C
:1004F0002C982B9803FD2B9A2C9A2C982B9802FD64
:100500002B9A2C9A2C982B9801FD2B9A2C9A2C988C
:100510002B9800FD2B9A2C9A2D9A08953C9A3D9A7F
:100520000895209A219A229A389A399A3A9A3B9AAF
:0205300008952C
:00000001FF
