:020000020000FC
:0C000000FFC00407205E1C4530330F00D9
:02001C005CC1C5
:1002000066270FEF0DBF08E00EBFA2E0B0E0CEE121
:10021000D0E0FD01F89407E00093B10002E0009304
:10022000B0000CE70093B30002E0009370007894F4
:1002300055277727EE240027C5D095D06EC06AB920
:10024000E72F0491E490FD0108950895BED02A9807
:10025000299828982A9A409860FD409A419861FD13
:10026000419A429862FD429A439863FD439A2CD08A
:100270002A9829982898299A812F807F82954098DA
:1002800080FD409A419881FD419A429882FD429AB0
:10029000439883FD439A18D02A9829982898289A39
:1002A000812F8F70409880FD409A419881FD419A3E
:1002B000429882FD429A439883FD439A05D008955F
:1002C00081D04598449A08952BE033E63A95F1F7AA
:1002D0002A95E1F7089559B15E1521F1B0DF43E0A9
:1002E00098E011276627812F8F70853068F4812F61
:1002F000807F803558F4653068F4000F111F661F49
:100300009A95903049F0EFCF140FF1CF1295140F5A
:100310001295F1CF640FF1CF18953C9A449AD0DF33
:1003200095DFFBCF7395F3948ADF43E098E01127C4
:100330006627812F8F70853068F4812F807F80350C
:1003400058F4653068F4000F111F661F9A959030BD
:1003500049F0EFCF140FF1CF1295140F1295F1CF92
:10036000640FF1CF1895239A249A259A05E02D98C9
:100370002C982B9807FD2B9A2C9A2C982B9806FDDD
:100380002B9A2C9A2C982B9805FD2B9A2C9A2C980A
:100390002B9804FD2B9A2C9A2C982B9803FD2B9AC2
:1003A0002C9A2C982B9802FD2B9A2C9A2C982B98EF
:1003B00001FD2B9A2C9A2C982B9800FD2B9A2C9AA5
:1003C0002D9A08953C9A3D9A0895209A219A229A4E
:0A03D000389A399A3A9A3B9A089538
:00000001FF
