:020000020000FC
:0C000000FFC00239205E1C4530330F00A9
:02001C004AC1D7
:1002000066270FEF0DBF08E00EBFA2E0B0E0CEE121
:10021000D0E0FD01F89407E00093B10002E0009304
:10022000B0000CE70093B30002E0009370007894F4
:1002300043E098E01127662755275AB950E0E50FAB
:10024000049100C0812F8F70853068F4812F807FEA
:10025000803558F4653068F4000F111F661F9A95B9
:10026000903049F0EFCF140FF1CF1295140F129583
:10027000F1CF640FF1CF07E004B904E005B90FEF47
:1002800007B9062F08B90ED002E005B9812F807F8B
:10029000829588B907D001E005B9812F8F7088B9A0
:1002A00001D0E9CF2BE033E63A95F1F72A95E1F753
:1002B000089501D0189559B1501721F0FBCF13952F
:0E02C00008950895EFDF59B15017C9F3FACF32
:00000001FF
