:020000020000FC
:0C000000FFC00407205E1C4530330F00D9
:02001C0051C1D0
:1002000066270FEF0DBF08E00EBFA2E0B0E0CEE121
:10021000D0E0FD01F89407E00093B10002E0009304
:10022000B0000CE70093B30002E0009370007894F4
:10023000552777270027EE2449C06AB9E72F049194
:10024000E490FD010895089543E098E011276627A2
:10025000812F8F70853068F4812F807F803558F42E
:10026000653068F4000F111F661F9A95903049F0B1
:10027000EFCF140FF1CF1295140F1295F1CF640F39
:10028000F1CF089507E004B904E005B90FEF07B90D
:10029000062F08B90ED002E005B9812F807F829524
:1002A00088B907D001E005B9812F8F7088B901D0D6
:1002B00008952BE033E63A95F1F72A95E1F7089592
:1002C00059B15E1529F0B9DFBFDF1895DBDFFECF2E
:0802D0007395B3DFB9DF189547
:00000001FF
